:020000040800F2
:10000000005000200D300008292900082F29000881
:10001000352900083B29000841290008000000009C
:100020000000000000000000000000004729000858
:1000300053290008000000005F2900086B29000810
:10004000553000085530000855300008553000087C
:10005000553000085530000855300008553000086C
:10006000553000085530000855300008553000085C
:10007000553000085530000855300008553000084C
:10008000553000085530000855300008553000083C
:10009000553000085530000855300008553000082C
:1000A000553000085530000855300008553000081C
:1000B000553000085530000855300008553000080C
:1000C00055300008553000085530000855300008FC
:1000D00055300008553000085530000855300008EC
:1000E0005530000855300008553000080000000069
:1000F0000000000000000000000000000000000000
:0C01000000000000000000005FF808F1A3
:1001100010B5054C237833B9044B13B10448AFF341
:1001200000800123237010BDF001002000000000BA
:10013000148F000808B5034B1BB103490348AFF304
:10014000008008BD00000000F4010020148F0008AA
:10015000034613F8012B002AFBD1181A0138704707
:1001600081F0004102E000BF83F0004330B54FEA68
:1001700041044FEA430594EA050F08BF90EA020FD5
:100180001FBF54EA000C55EA020C7FEA645C7FEA68
:10019000655C00F0E2804FEA5454D4EB5555B8BF8B
:1001A0006D420CDD2C4480EA020281EA030382EAFC
:1001B000000083EA010180EA020281EA0303362D8E
:1001C00088BF30BD11F0004F4FEA01314FF4801C61
:1001D0004CEA113102D0404261EB410113F0004F73
:1001E0004FEA03334CEA133302D0524263EB43032A
:1001F00094EA050F00F0A780A4F10104D5F1200EC8
:100200000DDB02FA0EFC22FA05F2801841F1000122
:1002100003FA0EF2801843FA05F359410EE0A5F1F6
:1002200020050EF1200E012A03FA0EFC28BF4CF027
:10023000020C43FA05F3C01851EBE37101F00045DD
:1002400007D54FF0000EDCF1000C7EEB00006EEBEA
:100250000101B1F5801F1BD3B1F5001F0CD3490874
:100260005FEA30004FEA3C0C04F101044FEA4452CB
:1002700012F5800F80F09A80BCF1004F08BF5FEA52
:10028000500C50F1000041EB045141EA050130BD32
:100290005FEA4C0C404141EB0101013C28BFB1F544
:1002A000801FE9D291F0000F04BF01460020B1FA8F
:1002B00081F308BF2033A3F10B03B3F120020CDA62
:1002C0000C3208DD02F1140CC2F10C0201FA0CF040
:1002D00021FA02F10CE002F11402D8BFC2F1200CA5
:1002E00001FA02F120FA0CFCDCBF41EA0C0190405B
:1002F000E41AA2BF01EB0451294330BD6FEA0404A4
:100300001F3C1CDA0C340EDC04F11404C4F120028E
:1003100020FA04F001FA02F340EA030021FA04F3A0
:1003200045EA030130BDC4F10C04C4F1200220FAF7
:1003300002F001FA04F340EA0300294630BD21FA35
:1003400004F0294630BD94F0000F83F4801306BFFB
:1003500081F480110134013D4EE77FEA645C18BFEF
:100360007FEA655C29D094EA050F08BF90EA020F86
:1003700005D054EA000C04BF1946104630BD91EA7E
:10038000030F1EBF0021002030BD5FEA545C05D181
:100390004000494128BF41F0004130BD14F58004C0
:1003A0003CBF01F5801130BD01F0004545F0FE4134
:1003B00041F470014FF0000030BD7FEA645C1ABF69
:1003C000194610467FEA655C1CBF0B46024650EAA0
:1003D000013406BF52EA033591EA030F41F40021CC
:1003E00030BD00BF90F0000F04BF0021704730B552
:1003F0004FF4806404F132044FF000054FF0000127
:1004000050E700BF90F0000F04BF0021704730B5E7
:100410004FF4806404F1320410F0004548BF4042BC
:100420004FF000013EE700BF42004FEAE2014FEA11
:1004300031014FEA02701FBF12F07F4393F07F4FEC
:1004400081F06051704732F07F4208BF704793F0EF
:100450007F4F04BF41F40021704730B54FF4607402
:1004600001F0004521F000411CE700BF50EA010205
:1004700008BF704730B54FF000050AE050EA0102AE
:1004800008BF704730B511F0004502D5404261EB1E
:1004900041014FF4806404F132045FEA915C3FF45F
:1004A000D8AE4FF003025FEADC0C18BF03325FEAFC
:1004B000DC0C18BF033202EBDC02C2F1200300FAAD
:1004C00003FC20FA02F001FA03FE40EA0E0021FAD2
:1004D00002F11444BDE600BF70B54FF0FF0C4CF4C0
:1004E000E06C1CEA11541DBF1CEA135594EA0C0F72
:1004F00095EA0C0F00F0DEF82C4481EA030621EAAD
:100500004C5123EA4C5350EA013518BF52EA0335E7
:1005100041F4801143F4801338D0A0FB02CE4FF099
:100520000005E1FB02E506F00042E0FB03E54FF0C9
:100530000006E1FB03569CF0000F18BF4EF0010EC1
:10054000A4F1FF04B6F5007F64F5407404D25FEABD
:100550004E0E6D4146EB060642EAC62141EA555170
:100560004FEAC52040EA5E504FEACE2EB4F1FD0CB2
:1005700088BFBCF5E06F1ED8BEF1004F08BF5FEA30
:10058000500E50F1000041EB045170BD06F00046E2
:1005900046EA010140EA020081EA0301B4EB5C048F
:1005A000C2BFD4EB0C0541EA045170BD41F4801187
:1005B0004FF0000E013C00F3AB8014F1360FDEBFAC
:1005C000002001F0004170BDC4F10004203C35DA88
:1005D0000C341BDC04F11404C4F1200500FA05F30B
:1005E00020FA04F001FA05F240EA020001F00042AC
:1005F00021F0004110EBD37021FA04F642EB060122
:100600005EEA430E08BF20EAD37070BDC4F10C044B
:10061000C4F1200500FA04F320FA05F001FA04F20F
:1006200040EA020001F0004110EBD37041F10001FB
:100630005EEA430E08BF20EAD37070BDC4F1200506
:1006400000FA05F24EEA020E20FA04F301FA05F26E
:1006500043EA020321FA04F001F0004121FA04F216
:1006600020EA020000EBD3705EEA430E08BF20EAE6
:10067000D37070BD94F0000F0FD101F00046400020
:1006800041EB010111F4801F08BF013CF7D041EAA2
:10069000060195F0000F18BF704703F000465200A6
:1006A00043EB030313F4801F08BF013DF7D043EA77
:1006B0000603704794EA0C0F0CEA135518BF95EA2D
:1006C0000C0F0CD050EA410618BF52EA4306D1D1B4
:1006D00081EA030101F000414FF0000070BD50EAD3
:1006E000410606BF1046194652EA430619D094EA5D
:1006F0000C0F02D150EA013613D195EA0C0F05D147
:1007000052EA03361CBF104619460AD181EA03019A
:1007100001F0004141F0FE4141F470014FF0000052
:1007200070BD41F0FE4141F4780170BD70B54FF0ED
:10073000FF0C4CF4E06C1CEA11541DBF1CEA13556D
:1007400094EA0C0F95EA0C0F00F0A7F8A4EB05044F
:1007500081EA030E52EA03354FEA013100F0888046
:100760004FEA03334FF0805545EA131343EA12630F
:100770004FEA022245EA111545EA10654FEA0026C4
:100780000EF000419D4208BF964244F1FD0404F57D
:10079000407402D25B084FEA3202B61A65EB0305D9
:1007A0005B084FEA32024FF480104FF4002CB6EB96
:1007B000020E75EB030E22BFB61A754640EA0C0016
:1007C0005B084FEA3202B6EB020E75EB030E22BF56
:1007D000B61A754640EA5C005B084FEA3202B6EB97
:1007E000020E75EB030E22BFB61A754640EA9C0056
:1007F0005B084FEA3202B6EB020E75EB030E22BF26
:10080000B61A754640EADC0055EA060E18D04FEAE3
:10081000051545EA16754FEA06164FEAC30343EA83
:1008200052734FEAC2025FEA1C1CC0D111F4801F50
:100830000BD141EA00014FF000004FF0004CB6E749
:1008400011F4801F04BF01430020B4F1FD0C88BFE8
:10085000BCF5E06F3FF6AFAEB5EB030C04BFB6EBF3
:10086000020C5FEA500C50F1000041EB045170BDE6
:100870000EF0004E4EEA113114EB5C04C2BFD4EB13
:100880000C0541EA045170BD41F480114FF0000E97
:10089000013C90E645EA060E8DE60CEA135594EA13
:1008A0000C0F08BF95EA0C0F3FF43BAF94EA0C0F16
:1008B0000AD150EA01347FF434AF95EA0C0F7FF48B
:1008C00025AF104619462CE795EA0C0F06D152EADF
:1008D00003353FF4FDAE1046194622E750EA4106C3
:1008E00018BF52EA43067FF4C5AE50EA41047FF4D4
:1008F0000DAF52EA43057FF4EBAE12E74FF0FF3C39
:1009000006E000BF4FF0010C02E000BF4FF0010C09
:100910004DF804CD4FEA410C7FEA6C5C4FEA430C82
:1009200018BF7FEA6C5C1BD001B050EA410C0CBFD1
:1009300052EA430C91EA030F02BF90EA020F002033
:10094000704710F1000F91EA030F58BF994208BF9A
:1009500090422CBFD8176FEAE37040F00100704757
:100960004FEA410C7FEA6C5C02D150EA013C07D1AE
:100970004FEA430C7FEA6C5CD6D152EA033CD3D0F9
:100980005DF8040B704700BF8446104662468C46F3
:100990001946634600E000BF01B5FFF7B7FF002826
:1009A00048BF10F1000F01BD4DF808EDFFF7F4FF4F
:1009B0000CBF012000205DF808FB00BF4DF808EDDA
:1009C000FFF7EAFF34BF012000205DF808FB00BFFD
:1009D0004DF808EDFFF7E0FF94BF012000205DF81F
:1009E00008FB00BF4DF808EDFFF7CEFF94BF0120D4
:1009F00000205DF808FB00BF4DF808EDFFF7C4FFCD
:100A000034BF012000205DF808FB00BF4FEA410C15
:100A10007FEA6C5C02D150EA013C0AD14FEA430CF8
:100A20007FEA6C5C02D152EA033C02D14FF0000035
:100A300070474FF0010070474FEA410212F5001273
:100A400015D211D56FF47873B3EB625212D94FEA15
:100A5000C12343F0004343EA505311F0004F23FAFF
:100A600002F018BF404270474FF00000704750EA54
:100A7000013005D111F0004008BF6FF00040704711
:100A80004FF00000704700BF4FEA4102B2F1E0436F
:100A900024BFB3F5001CDCF1FE5C0DD901F0004C65
:100AA0004FEAC0024CEA5070B2F1004F40EB8300B5
:100AB00008BF20F00100704711F0804F21D113F1E1
:100AC0003872BCBF01F00040704741F480114FEA1A
:100AD0005252C2F11802C2F1200C10FA0CF320FAA3
:100AE00002F018BF40F001004FEAC1234FEAD323C0
:100AF00003FA0CFC40EA0C0023FA02F34FEA43032A
:100B0000CCE77FEA625307D150EA01331EBF4FF0B2
:100B1000FE4040F44000704701F0004040F0FE40CD
:100B200040F40000704700BF80F0004002E000BFCA
:100B300081F0004142001FBF5FEA410392EA030FC8
:100B40007FEA226C7FEA236C6AD04FEA1262D2EB12
:100B50001363C1BFD218414048404140B8BF5B4217
:100B6000192B88BF704710F0004F40F4000020F0B0
:100B70007F4018BF404211F0004F41F4000121F0C6
:100B80007F4118BF494292EA030F3FD0A2F1010210
:100B900041FA03FC10EB0C00C3F1200301FA03F14E
:100BA00000F0004302D5494260EB4000B0F5000F71
:100BB00013D3B0F1807F06D340084FEA310102F130
:100BC0000102FE2A51D2B1F1004F40EBC25008BFE2
:100BD00020F0010040EA03007047490040EB0000AC
:100BE000013A28BFB0F5000FEDD2B0FA80FCACF1AD
:100BF000080CB2EB0C0200FA0CF0AABF00EBC250DA
:100C000052421843BCBFD0401843704792F0000FC7
:100C100081F4000106BF80F400000132013BB5E71A
:100C20004FEA41037FEA226C18BF7FEA236C21D090
:100C300092EA030F04D092F0000F08BF08467047F5
:100C400090EA010F1CBF0020704712F07F4F04D1C3
:100C5000400028BF40F00040704712F100723CBFD6
:100C600000F50000704700F0004343F0FE4040F400
:100C7000000070477FEA226216BF08467FEA2363BE
:100C80000146420206BF5FEA412390EA010F40F4A9
:100C9000800070474FF0000304E000BF10F00043F5
:100CA00048BF40425FEA000C08BF704743F09643DC
:100CB00001464FF000001CE050EA010208BF7047F7
:100CC0004FF000030AE000BF50EA010208BF70477E
:100CD00011F0004302D5404261EB41015FEA010C93
:100CE00002BF84460146002043F0B64308BFA3F18B
:100CF0008053A3F50003BCFA8CF2083AA3EBC2536D
:100D000010DB01FA02FC634400FA02FCC2F120028B
:100D1000BCF1004F20FA02F243EB020008BF20F0C2
:100D20000100704702F1200201FA02FCC2F1200228
:100D300050EA4C0021FA02F243EB020008BF20EA1D
:100D4000DC7070474FF0FF0C1CEAD0521EBF1CEA4B
:100D5000D15392EA0C0F93EA0C0F6FD01A4480EA39
:100D6000010C400218BF5FEA41211ED04FF0006322
:100D700043EA501043EA5111A0FB01310CF000404E
:100D8000B1F5000F3EBF490041EAD3715B0040EA74
:100D9000010062F17F02FD2A1DD8B3F1004F40EB44
:100DA000C25008BF20F00100704790F0000F0CF017
:100DB000004C08BF49024CEA502040EA51207F3ADB
:100DC000C2BFD2F1FF0340EAC250704740F40000B6
:100DD0004FF00003013A5DDC12F1190FDCBF00F0A7
:100DE00000407047C2F10002410021FA02F1C2F155
:100DF000200200FA02FC5FEA310040F1000053EAF1
:100E00004C0308BF20EADC70704792F0000F00F03E
:100E1000004C02BF400010F4000F013AF9D040EA44
:100E20000C0093F0000F01F0004C02BF490011F4D8
:100E3000000F013BF9D041EA0C018FE70CEAD153D6
:100E400092EA0C0F18BF93EA0C0F0AD030F0004C56
:100E500018BF31F0004CD8D180EA010000F000400A
:100E6000704790F0000F17BF90F0004F084691F0C8
:100E7000000F91F0004F14D092EA0C0F01D1420202
:100E80000FD193EA0C0F03D14B0218BF084608D1CB
:100E900080EA010000F0004040F0FE4040F4000015
:100EA000704740F0FE4040F4400070474FF0FF0CA8
:100EB0001CEAD0521EBF1CEAD15392EA0C0F93EAEF
:100EC0000C0F69D0A2EB030280EA010C49024FEA41
:100ED000402037D04FF0805343EA111143EA1013FA
:100EE0000CF000408B4238BF5B0042F17D024FF4B2
:100EF000000C8B4224BF5B1A40EA0C00B3EB510F8D
:100F000024BFA3EB510340EA5C00B3EB910F24BF75
:100F1000A3EB910340EA9C00B3EBD10F24BFA3EBFA
:100F2000D10340EADC001B0118BF5FEA1C1CE0D1C2
:100F3000FD2A3FF650AF8B4240EBC25008BF20F075
:100F4000010070470CF0004C4CEA50207F32C2BFC9
:100F5000D2F1FF0340EAC250704740F400004FF066
:100F60000003013A37E792F0000F00F0004C02BF97
:100F7000400010F4000F013AF9D040EA0C0093F061
:100F8000000F01F0004C02BF490011F4000F013BBB
:100F9000F9D041EA0C0195E70CEAD15392EA0C0F23
:100FA00008D142027FF47DAF93EA0C0F7FF470AF5B
:100FB000084676E793EA0C0F04D14B023FF44CAF9E
:100FC00008466EE730F0004C18BF31F0004CCAD133
:100FD00030F000427FF45CAF31F000437FF43CAF6F
:100FE0005FE700BF4FF0FF3C06E000BF4FF0010C91
:100FF00002E000BF4FF0010C4DF804CD4FEA400273
:101000004FEA41037FEA226C18BF7FEA236C11D0BC
:1010100001B052EA530C18BF90EA010F58BFB2EB6F
:10102000030088BFC81738BF6FEAE17018BF40F0EF
:10103000010070477FEA226C02D15FEA402C05D1A3
:101040007FEA236CE4D15FEA412CE1D05DF8040B28
:10105000704700BF844608466146FFE70FB5FFF7BB
:10106000C9FF002848BF10F1000F0FBD4DF808ED73
:10107000FFF7F4FF0CBF012000205DF808FB00BF64
:101080004DF808EDFFF7EAFF34BF012000205DF8BE
:1010900008FB00BF4DF808EDFFF7E0FF94BF01200B
:1010A00000205DF808FB00BF4DF808EDFFF7D2FF08
:1010B00094BF012000205DF808FB00BF4DF808ED4B
:1010C000FFF7C8FF34BF012000205DF808FB00BF18
:1010D0004FEA4002B2F1FE4F0FD34FF09E03B3EB45
:1010E00012620DD94FEA002343F0004310F0004F85
:1010F00023FA02F018BF404270474FF000007047DB
:1011000012F1610F01D1420205D110F0004008BF79
:101110006FF0004070474FF00000704753B94AB974
:10112000002908BF00281CBF4FF0FF314FF0FF30EF
:1011300000F072B9ADF1080C6DE904CE00F006F8CC
:10114000DDF804E0DDE9022304B070472DE9F04743
:10115000089E0D4604468E46002B4CD18A4294468A
:1011600067D9B2FA82F353B102FA03FCC3F1200249
:1011700001FA03FE20FA02F242EA0E0E9C404FEA08
:101180001C47BEFBF7F11FFA8CF507FB11EE01FBC4
:1011900005F0220C42EA0E4290420AD91CEB0202F0
:1011A00001F1FF3E80F01981904240F21681023930
:1011B0006244121AB2FBF7F007FB102200FB05F5A0
:1011C000A4B244EA0244A5420AD91CEB040400F18B
:1011D000FF3280F00481A54240F20181644402386C
:1011E00040EA01400021641B1EB1DC400023C6E937
:1011F0000043BDE8F0878B4208D9002E00F0EA805A
:101200000021C6E900050846BDE8F087B3FA83F17E
:10121000002948D1AB4202D3824200F2F880841AFE
:1012200065EB030201209646002EE2D0C6E9004E8F
:10123000DFE702B9FFDEB2FA82F3002B40F08E80C6
:10124000881A0121170C1FFA82FEB0FBF7F507FB85
:101250001500220C42EA00420EFB05F0904208D92C
:101260001CEB020205F1FF3802D2904200F2CC8062
:101270004546121AB2FBF7F007FB10220EFB00FEE8
:10128000A4B244EA0244A64508D91CEB040400F1C8
:10129000FF3202D2A64500F2B4801046A4EB0E0441
:1012A00040EA0540A0E7C1F120078B4022FA07FC85
:1012B0004CEA030C25FA07FA4FEA1C49BAFBF9F885
:1012C0008D4020FA07F309FB18AA1FFA8CFE2B4366
:1012D00000FA01F508FB0EF01C0C44EA0A44A04297
:1012E00002FA01F20BD91CEB040408F1FF3A80F07A
:1012F0008680A04240F28380A8F102086444241A48
:1013000098B2B4FBF9F309FB134403FB0EFE40EA69
:101310000444A64508D91CEB040403F1FF306AD24B
:10132000A64568D9023B644443EA0840A0FB029307
:10133000A4EB0E049C42C8469E4654D351D0002EC6
:1013400067D0B5EB080364EB0E04CB4004FA07F753
:101350001F43CC40C6E9007400214AE702FA03FCAF
:10136000C3F12000C1409D4024FA00F04FEA1C4721
:101370002843B1FBF7F507FB15111FFA8CFE020C91
:1013800042EA014205FB0EF1914204FA03F408D946
:101390001CEB020205F1FF382FD291422DD9023DFC
:1013A0006244521AB2FBF7F107FB112280B240EA05
:1013B000024001FB0EF2824208D91CEB000001F151
:1013C000FF3816D2824214D902396044801A41EAA9
:1013D00005413AE7314630460BE77146E9E61046EB
:1013E000FEE64D45ABD2B9EB020863EB0C0E0138BB
:1013F000A5E74146EAE7034696E74546D1E7D046EA
:101400007DE76444023849E7023D624431E708461B
:101410000AE73146EDE600BF704700BF90B59BB0CC
:1014200000AFF860B9607A603B609D4B1B6883F049
:101430000043F9681846FFF785FC03461C46994BA4
:101440001B68B9681846FFF77DFC0346194620461D
:10145000FFF76EFB03461C46934B1B6879681846E2
:10146000FFF770FC034619462046FFF761FB034671
:101470004FF07C511846FFF765FC03467B668B4BAB
:101480001B68F9681846FFF75DFC03461C46854B50
:101490001B6879681846FFF755FC03461946204635
:1014A000FFF748FB03461C467F4B1B68B96818468C
:1014B000FFF748FC034619462046FFF739FB034671
:1014C0004FF07C511846FFF73DFC03463B66774BD7
:1014D0001B68B9681846FFF735FC03461C46704B7D
:1014E0001B6879681846FFF72DFC0346194620460D
:1014F000FFF71EFB03461C466B4B1B68F96818463A
:10150000FFF720FC034619462046FFF713FB03466E
:101510004FF07C511846FFF715FC0346FB65634B03
:101520001B6879681846FFF70DFC03461C465C4BA8
:101530001B68B9681846FFF705FC034619462046A4
:10154000FFF7F8FA03461C46564B1B68F968184625
:10155000FFF7F8FB034619462046FFF7E9FA034672
:101560004FF07C511846FFF7EDFB0346BB654FF08B
:1015700000013868FFF77AFD0346002B10D04FF0CA
:101580000001B86FFFF772FD0346002B08D04FF043
:101590000001F86FFFF76AFD0346002B40F03C8224
:1015A00039683868FFF7CEFB03461C46B96FB86F41
:1015B000FFF7C8FB034619462046FFF7BBFA034670
:1015C0001C46F96FF86FFFF7BDFB0346194620462E
:1015D000FFF7B0FA0346184600F0D0FA7865796D47
:1015E0003868FFF7AFFB03463B60796DB86FFFF7D4
:1015F000A9FB0346BB67796DF86FFFF7A3FB0346B2
:10160000FB672A4B1B6819461846FFF793FA0346F7
:101610003B65234B1B6819461846FFF78BFA0346B8
:10162000FB64204B1B6819461846FFF783FA0346F4
:10163000BB641D4B1B6819461846FFF77BFA03462F
:101640007B641A4B1B684FF081411846FFF77AFB09
:1016500003463B64124B1B684FF081411846FFF76D
:1016600071FB0346FB630F4B1B684FF0814118462B
:10167000FFF768FB0346BB63094B1B684FF08241D1
:101680001846FFF75FFB03467B63064B1B684FF072
:1016900082411846FFF756FB03463B6308E000BF54
:1016A0000C02002010020020140200200400002080
:1016B0009A4B1B68994A126811461846FFF742FB7D
:1016C0000346FB62964B1B68954A12681146184602
:1016D000FFF738FB0346BB62924B1B68914A1268C6
:1016E00011461846FFF72EFB03467B628E4B1B68A4
:1016F0008D4A126811461846FFF724FB03463B62E9
:10170000796A386CFFF71EFB03461C463968B86CD3
:10171000FFF718FB034619462046FFF70BFA03466E
:101720001C46B96A386CFFF70DFB03461946204684
:10173000FFF700FA03461C46B96FF86CFFF702FB8F
:10174000034619462046FFF7F3F90346FB61396A61
:10175000F86BFFF7F7FA03461C463968786CFFF719
:10176000F1FA034619462046FFF7E2F903461C4604
:101770004FF08141F86AFFF7E5FA03461A46684BD5
:101780001B6819461046FFF7DDFA03461946204646
:10179000FFF7D0F903461C46B96F386DFFF7D2FA50
:1017A000034619462046FFF7C3F90346F96B18466E
:1017B000FFF7BEF903461C46B96A786BFFF7C2FA19
:1017C000034619462046FFF7B5F903461C46796AD9
:1017D000786BFFF7B7FA034619462046FFF7AAF9D8
:1017E00003461C46F96FF86BFFF7ACFA034619463F
:1017F0002046FFF79FF90346BB614FF08141F86A2D
:10180000FFF7A0FA03461A46464B1B6819461046D6
:10181000FFF798FA03461C463968386DFFF792FACD
:10182000034619462046FFF785F903461C46396AE8
:10183000B86BFFF787FA034619462046FFF77AF997
:1018400003461C46B96F786CFFF77CFA03461946CD
:101850002046FFF76DF90346B96B1846FFF768F9A4
:1018600003461C46B96A386BFFF76CFA0346194603
:101870002046FFF75FF903461C46796A386BFFF78D
:1018800061FA034619462046FFF754F903461C4601
:10189000F96FB86BFFF756FA034619462046FFF773
:1018A00049F903467B614FF08141B86AFFF74AFA74
:1018B00003461A461C4B1B6819461046FFF742FAAE
:1018C00003461C463968F86CFFF73CFA0346194694
:1018D0002046FFF72DF903461C464FF08141786AF8
:1018E000FFF730FA03461A460F4B1B68194610469D
:1018F000FFF728FA034619462046FFF71BF903466F
:101900001C46B96FB86CFFF71DFA0346194620460E
:10191000FFF70EF903463B6108E000BF040000201A
:101920000C0200201002002014020020F969F8695E
:10193000FFF708FA03461C46B969B869FFF702FACF
:10194000034619462046FFF7F5F803461C46796919
:101950007869FFF7F7F9034619462046FFF7EAF8DA
:1019600003461C4639693869FFF7ECF90346194606
:101970002046FFF7DFF80346184600F0FFF87865C9
:10198000796DF869FFF7DEF90346FB61796DB86997
:10199000FFF7D8F90346BB61796D7869FFF7D2F993
:1019A00003467B61796D3869FFF7CCF903463B61EB
:1019B0006C4B1B68F9691846FFF7C4F903461946D2
:1019C000786EFFF7B5F803467B66664B1B68B9690E
:1019D0001846FFF7B7F903461946386EFFF7A8F81F
:1019E00003463B665F4B1B6879691846FFF7AAF907
:1019F00003461946F86DFFF79BF80346FB65594B04
:101A00001B6839691846FFF79DF903461946B86DFA
:101A1000FFF78EF80346BB655349786EFFF792F9DE
:101A200003461A46514B1B6819461046FFF782F8C9
:101A300003461A464D4B1A604B49386EFFF782F940
:101A400003461A464A4B1B6819461046FFF772F8C0
:101A500003461A46464B1A604349F86DFFF772F980
:101A600003461A46434B1B6819461046FFF762F8B7
:101A700003461A463F4B1A603B49B86DFFF762F9BF
:101A800003461A463C4B1B6819461046FFF752F8AE
:101A900003461A46384B1A60344B1B68334A1268A7
:101AA00011461846FFF74EF903461C46304B1B689B
:101AB0002F4A126811461846FFF744F903461946A3
:101AC0002046FFF737F803461C462A4B1B68294A75
:101AD000126811461846FFF735F9034619462046A5
:101AE000FFF728F803461C46234B1B68224A12685E
:101AF00011461846FFF726F9034619462046FFF718
:101B000019F80346184600F039F87865174B1B683A
:101B1000796D1846FFF716F903461A46134B1A60FB
:101B2000134B1B68796D1846FFF70CF903461A46EC
:101B30000F4B1A600F4B1B68796D1846FFF702F9BF
:101B400003461A460B4B1A600B4B1B68796D1846FF
:101B5000FFF7F8F803461A46074B1A6000BF6C37C8
:101B6000BD4690BD00000020515D613C0400002096
:101B70000C020020100200201402002080B586B064
:101B800000AF78604FF07C517868FFF7DBF80346D0
:101B90007B617B683B6107F110031B68FB60FB689E
:101BA0005A10134B9B1AFB6007F10C031B683B6137
:101BB0003B6979691846FFF7C5F803461A463B6941
:101BC00019461046FFF7BEF8034619464FF07F50FE
:101BD000FEF7AEFF03461A463B6919461046FFF76B
:101BE000B1F803463B613B6918461837BD4680BDD6
:101BF000DF59375F80B582B000AF786039607B68AD
:101C000058697B681B6999B23B68012B0CBF0123A3
:101C10000023DBB21A4601F024FD00BF0837BD46A1
:101C200080BD80B582B000AF786001217868FFF791
:101C3000E1FF7B6858687B681B689BB201221946EC
:101C400001F00FFD00BF0837BD4680BD80B582B0F2
:101C500000AF7860786801F061FA00BF0837BD46D0
:101C600080BD80B582B000AF786001217868FFF751
:101C7000C1FF7B6858687B681B689BB200221946CD
:101C800001F0EFFC0120FFF7E1FF7B6858687B68FB
:101C90001B689BB20122194601F0E3FC6420FFF7A8
:101CA000D5FF00BF0837BD4680BD80B582B000AF0C
:101CB00078600B46FB7000217868FFF79BFF7B681C
:101CC0009869F91C4FF47A73012203F0ADF900BF53
:101CD0007B689B69184603F09AFC0346012BF7D1F9
:101CE00000BF00BF0837BD4680BD80B586B002AFDB
:101CF00078600023FB730023BB7300217868FFF733
:101D000079FF7B68986907F10E0207F10F014FF424
:101D10007A730093012303F0CAFA00BF7B689B69C2
:101D2000184603F074FC0346012BF7D1BB7B184621
:101D30001037BD4680BD80B582B000AF78607B684B
:101D4000DA687B689B689BB21946104601F072FC0A
:101D50000346012B0CBF01230023DBB218460837D2
:101D6000BD4680BD80B588B000AF07F110030022EA
:101D70001A605A609A60DA60354B9B69344A43F0C6
:101D800010039361324B9B6903F01003FB60FB6807
:101D90002F4B9B692E4A43F0040393612C4B9B69A4
:101DA00003F00403BB60BB68294B9B69284A43F0DE
:101DB00008039361264B9B6903F008037B607B68F3
:101DC0004FF400533B6100237B610023BB6107F1AB
:101DD000100319461F4801F0A9FA30233B61012383
:101DE0007B610023BB610223FB6107F110031946ED
:101DF000194801F09BFA01233B6100237B6100231A
:101E0000BB6107F110031946144801F08FFA022351
:101E10003B6101237B610023BB610223FB6107F16E
:101E2000100319460D4801F081FA012210210A48D9
:101E300001F017FC00222021074801F012FC0122CA
:101E40000221064801F00DFC00BF2037BD4680BDD1
:101E5000001002400010014000080140000C014049
:101E600080B586B004AF03460A46FB711346BB71CA
:101E70000A4AFB791370FB799AB2BB799BB24FF493
:101E80007A7102910193064B00930123D0210548FA
:101E900001F042FE00BF0837BD4680BD4002002071
:101EA000480200205002002080B500AF06214320E8
:101EB000FFF7D6FF144B1B789BB21B029AB2124B52
:101EC0005B789BB213449BB21AB2104B1A800E4B34
:101ED0009B789BB21B029AB20B4BDB789BB21344EC
:101EE0009BB21AB2094B5A80074B1B799BB21B025B
:101EF0009AB2054B5B799BB213449BB21AB2034B67
:101F00009A8000BF80BD00BF480200201802002058
:101F100080B500AFFFF7C8FF174BB3F90030184684
:101F2000FEF7BCFE034615491846FEF7BFFF034601
:101F30001A46134B1A60104BB3F902301846FEF7DD
:101F4000ADFE03460D491846FEF7B0FF03461A469C
:101F50000B4B5A60084BB3F904301846FEF79EFE4F
:101F6000034606491846FEF7A1FF03461A46044BEE
:101F70009A6000BF80BD00BF18020020A6E96A4435
:101F80002002002080B500AF06213B20FFF768FF4C
:101F9000154B1B789BB21B029AB2134B5B789BB21A
:101FA00013449BB2A3F582739BB21AB20F4B1A80F3
:101FB0000D4B9B789BB21B029AB20B4BDB789BB20A
:101FC00013449BB21AB2094B5A80074B1B799BB240
:101FD0001B029AB2044B5B799BB213449BB21AB2B8
:101FE000024B9A8000BF80BD480200202C020020D6
:101FF00080B500AFFFF7C6FF184BB3F900301846A5
:10200000FEF74CFE03464FF08C411846FEF74EFF9C
:1020100003461A46124B1A60104BB3F902301846A9
:10202000FEF73CFE03464FF08C411846FEF73EFF9C
:1020300003461A460A4B5A60084BB3F90430184657
:10204000FEF72CFE03464FF08C411846FEF72EFF9C
:1020500003461A46024B9A6000BF80BD2C02002046
:102060003402002080B584B002AF03460A46FB71FB
:102070001346BB71084AFB791370074ABB7953704A
:10208000012300930223044AD021044801F046FCB6
:1020900000BF0837BD4680BD40020020500200202E
:1020A00080B500AF00216B20FFF7DCFF0321192072
:1020B000FFF7D8FF06211A20FFF7D4FF10211B20BD
:1020C000FFF7D0FF10211C20FFF7CCFF00BF80BD21
:1020D0002DE9F043ADF5077D06AF00F0BDFF00F040
:1020E00027FAFFF73FFE00F097FA00F067FA00F0DA
:1020F000CFFA41F2883001F011F83B46A649184664
:1021000000F00AFBA54BA64ADA60A44B01229A60B4
:10211000A24BA44A5A61A14B10221A619F4BA04ABC
:102120005A609E4B02221A609C4B9F4A9A619F4BB9
:102130009A4A1A6040F6B83000F0F0FF3B469C49DE
:10214000184600F0E9FA0A230593002304930023BC
:1021500003930723029301230193012300938CA38C
:10216000D3E90023914800F05EFE40F6B83000F05D
:10217000D5FF3B468F49184600F0CEFA4FF4FA627D
:1021800010218A4800F0B8FD03468B4A53608A4B01
:1021900000229A60884B00221A61874B00225A6104
:1021A000FFF77EFFFFF7B4FEFFF722FF834B1868AF
:1021B000824B5968814B9E68814BD3F800C0804B9D
:1021C0005B687F4A92680192009363463246FFF74C
:1021D00025F97C4B1B687C4A126811461846FEF7AD
:1021E000B1FD03461E46794B1B68794A12681146B9
:1021F0001846FEF7A7FD034619463046FEF798FC41
:10220000034619461846FEF795FC03461846FEF7A6
:102210000BF902460B461046194606F019F902461C
:102220000B46144683F000454FF00002694B2046F0
:102230002946FEF751F902460B4610461946FEF7AD
:1022400023FC03465C4AC2F81C325E4B1B681946ED
:102250001846FEF76FFC03461A465D4B1B6819468D
:102260001046FEF76FFD03461E46584B1B68194685
:102270001846FEF75FFC03461A46534B1B68194687
:102280001046FEF75FFD034619463046FEF752FC46
:1022900003461846FEF7C8F8804689464B4B1B6834
:1022A00019461846FEF746FC03461A46474B1B687C
:1022B00019461046FEF746FD03461E46414B1B6875
:1022C00019461846FEF736FC03461A463D4B1B6876
:1022D00019461046FEF736FD034619463046FEF70E
:1022E00029FC03464FF07E511846FEF721FC0346B9
:1022F0001846FEF799F802460B464046494606F056
:10230000CFF84FF00002334BFEF7E6F802460B46DB
:1023100010461946FEF7B8FB0346274AC2F81832A2
:102320002B4B1B6819461846FEF704FC03461A4659
:10233000254B1B6819461046FEF704FD03461E4652
:10234000224B1B6819461846FEF7F4FB03461A4653
:102350001C4B1B6819461046FEF7F4FC0346194651
:102360003046FEF7E7FB03461846FEF75DF8804669
:102370008946164B1B6819461846FEF7DBFB0346D9
:102380001A46124B1B68194626E000BFAFF30080C7
:102390008050DE1900000000308F0008FC02002091
:1023A000000C014000080140A40200201803002096
:1023B000408F0008588F00083004002020020020C1
:1023C000340200200C02002014020020040000202F
:1023D00010020020000059401046FEF7B3FC0346EF
:1023E0001E46484B1B6819461846FEF7A3FB0346DA
:1023F0001A46444B1B6819461046FEF7A3FC0346D9
:1024000019463046FEF796FB03464FF07E511846BC
:10241000FEF78EFB03461846FEF706F802460B460B
:102420004046494606F03CF84FF00002364BFEF7B6
:1024300053F802460B4610461946FEF725FB0346A5
:10244000324AC2F820323B463149184600F064F95E
:102450004FF47A7000F062FE3B462E49184600F0B9
:102460005BF92A4BD3F81C321846FEF731FE0646BC
:10247000264BD3F818321846FEF72AFE8046234B27
:10248000D3F820321846FEF723FE03460093434656
:1024900032462149214803F08DFE03461B4AD36092
:1024A0001A4BDB68DBB24FF4FA6219461C4800F0A5
:1024B00023FC0346154A5360144B5A683B4619499E
:1024C000184600F04FF93B461449184600F024F92D
:1024D0000E4BDB68DAB24FF4FA631049104800F093
:1024E00063FC0346094A5360084B5A683B460E4951
:1024F000184600F037F93B460C49184600F00CF935
:1025000050E600BF140200200000594030040020B3
:10251000748F0008848F0008988F000848040020FA
:1025200018030020A88F0008B08F0008C08F000893
:1025300080B590B000AF07F118032822002118469B
:1025400003F09BFE3B1D00221A605A609A60DA601D
:102550001A610123BB614FF48033FB6100233B62AE
:102560000123BB6202237B634FF48033BB634FF4D0
:10257000E013FB6307F11803184602F0D5F8034691
:10258000002B01D000F07EF80F237B600223BB609C
:102590000023FB604FF480633B6100237B613B1DA4
:1025A0000221184602F042FB0346002B01D000F046
:1025B00069F800BF4037BD4680BD000080B500AF60
:1025C000124B134A1A60114B124A5A600F4B0022E9
:1025D0009A600E4B0022DA600C4B4FF480421A6175
:1025E0000A4B00225A61094B00229A61074B0022D4
:1025F000DA61064B00221A62044801F04BF80346E8
:10260000002B01D000F03EF800BF80BD500200203A
:1026100000540040A086010080B500AF174B184A57
:102620001A60164B4FF482725A60144B00229A6063
:10263000124B0022DA60114B00221A610F4B00226C
:102640005A610E4B4FF400729A610C4B0022DA6112
:102650000A4B00221A62094B00225A62074B0022E1
:102660009A62064B0A22DA62044802F059FC0346D9
:10267000002B01D000F006F800BF80BDA4020020AE
:102680000038004080B400AF72B600BFFEE7000023
:1026900080B400AF0F4B9B690E4A43F4804343F074
:1026A000050393610C4B5B680B4A43F40B63536067
:1026B000094BDB68084A43F48063D360074B42F25E
:1026C0000C02DA60054B40F271229A6000BFBD46F1
:1026D00080BC7047001002400008014000380140F3
:1026E00080B483B000AF0346FB710A4AFB795360A4
:1026F00000BF084B1B6803F04003002BF9D0054BCB
:102700001B68044A23F04003136000BF0C37BD462A
:1027100080BC70470038014080B584B000AF78605D
:1027200039603A680E49786803F044FD0023FB6085
:1027300009E0FB687A6813441B781846FFF7D0FF5E
:10274000FB680133FB60FB687A6813441B78002B3D
:10275000EFD10A20FFF7C4FF00BF1037BD4680BD90
:10276000D48F000880B586B000AFF860B9607A6099
:102770007B68BA680D49F86803F01CFD00237B6193
:1027800009E07B69FA6813441B781846FFF7A8FF35
:102790007B6901337B617B69FA6813441B78002BEA
:1027A000EFD100BF00BF1837BD4680BDE88F0008DD
:1027B00080B485B000AF154B9B69144A43F0010308
:1027C0009361124B9B6903F00103BB60BB680F4B25
:1027D000DB690E4A43F08053D3610C4BDB6903F095
:1027E00080537B607B680A4B5B68FB60FB6823F06F
:1027F000E063FB60FB6843F08063FB60044AFB68B6
:10280000536000BF1437BD4680BC704700100240C3
:102810000000014080B588B000AF786007F1100378
:1028200000221A605A609A60DA607B681B68154A59
:10283000934223D1144B9B69134A43F008039361DD
:10284000114B9B6903F00803FB60FB68C0233B61ED
:1028500012237B610323FB6107F1100319460B4828
:1028600000F064FD084BDB69074A43F40013D361B1
:10287000054BDB6903F40013BB60BB6800BF203766
:10288000BD4680BD0054004000100240000C0140D5
:1028900080B588B000AF786007F1100300221A609D
:1028A0005A609A60DA607B681B681C4A934231D197
:1028B0001B4BDB691A4A43F48043D361184BDB6935
:1028C00003F48043FB60FB68154B9B69144A43F09B
:1028D00008039361124B9B6903F00803BB60BB685C
:1028E0004FF420433B6102237B610323FB6107F12B
:1028F000100319460B4800F019FD4FF480433B616B
:1029000000237B610023BB6107F1100319460548D2
:1029100000F00CFD00BF2037BD4680BD00380040F0
:1029200000100240000C014080B400AFFEE780B40C
:1029300000AFFEE780B400AFFEE780B400AFFEE773
:1029400080B400AFFEE780B400AF00BFBD4680BCDE
:10295000704780B400AF00BFBD4680BC704780B4F4
:1029600000AF00BFBD4680BC704780B500AF00F02F
:10297000B9FB00BF80BD80B584B000AF78600B4666
:10298000FB707B681B68FA7811461846FFF78DF9D3
:102990007B681B681846FFF7A8F90346FB737B6842
:1029A0001B6801211846FFF725F9FB7B18461037F5
:1029B000BD4680BD80B582B000AF78600B46FB702D
:1029C0001346BB707B681B6800211846FFF712F99D
:1029D0007B681A68FB7863F07F03DBB21946104608
:1029E000FFF763F97B681B68BA7811461846FFF752
:1029F0005CF97B681B6801211846FFF7FBF800BFF4
:102A00000837BD4680BD80B586B000AFF8607A60FB
:102A10001A460B46FB721346BB72BB7A012B29D9AF
:102A2000FB681B6800211846FFF7E4F8FB681A688A
:102A3000FB7A63F07F03DBB219461046FFF735F9E6
:102A40000023FB750BE0FB681868FB7D7A68134474
:102A50001B781946FFF729F9FB7D0133FB75FA7DD9
:102A6000BB7A9A42EFD3FB681B6801211846FFF737
:102A7000C1F800E000BF1837BD4680BD80B586B004
:102A800000AF7860786800F00DF90F20FFF7DEF8EE
:102A9000786800F017F97B68D3E902234FF0000053
:102AA0004FF00001D90441EA5231D0046F4A4FF08F
:102AB0000003FEF733FB02460B46C7E90423D7E9C0
:102AC00004014FF000024FF00003020C42EA014201
:102AD0000B0CD3B23B73D7E904014FF000024FF067
:102AE0000003020A42EA01620B0AD3B27B733B7C09
:102AF000BB7307F10C02032306217868FFF783FFFD
:102B0000342239217868FFF755FF7B681B7C1A4611
:102B1000574B9B5C1A4609217868FFF74BFF0B2245
:102B20000B217868FFF746FF23220C217868FFF716
:102B300041FF7B685B7C1A464E4B9B5C062B47D162
:102B40007B689B7C1A464C4B9B5C1B01DAB27B6812
:102B5000DB7C1946494B5B5C5B00DBB21344DBB2A8
:102B60000133DBB21A461D217868FFF723FF7B682B
:102B70005B7C1A463F4B9B5C1B01DAB27B681B7D7A
:102B800019463F4B5B5C9B00DBB21344DBB2033363
:102B9000DBB21A461E217868FFF70CFF31217868F6
:102BA000FFF7E9FE0346FB73FB7B23F00703FB7390
:102BB000FB7B43F00503FB73FB7B1A4631217868EE
:102BC000FFF7F8FE0C2237217868FFF7F3FE29E0C3
:102BD0007B689B7C1A46284B9B5C1B01DAB27B68A6
:102BE000DB7C1946254B5B5C5B00DBB21344DBB23C
:102BF0001A461D217868FFF7DDFE7B685B7C1A466C
:102C00001C4B9B5C1B01DAB27B681B7D19461C4B7D
:102C10005B5C9B00DBB21344DBB21A461E21786872
:102C2000FFF7C8FE042226217868FFF7C3FE0822BA
:102C30001F217868FFF7BEFE002220217868FFF789
:102C4000B9FE082221217868FFF7B4FE0122412154
:102C50007868FFF7AFFE7B68002283F81721786859
:102C600000F010F800BF1837BD4680BD0048E801ED
:102C7000F88F0008FC8F00080490000810900008EE
:102C80001490000880B582B000AF7860092201215D
:102C90007868FFF78FFE7B6801229A7500BF0837BE
:102CA000BD4680BD80B582B000AF786008220121AA
:102CB0007868FFF77FFE7B6800229A7500BF0837AF
:102CC000BD4680BD80B582B000AF7860882201210A
:102CD0007868FFF76FFE00BF0837BD4680BD80B53E
:102CE00082B000AF7860FF2212217868FFF762FEA1
:102CF00000BF0837BD4680BD80B586B000AFF86024
:102D00000B467A60FB72FB68FA7A5A75F868FFF72F
:102D1000B5FE87224D21F868FFF74CFE00222421E2
:102D2000F868FFF747FE41224021F868FFF742FEAE
:102D3000F868FFF7D4FFF7221121F868FFF73AFE91
:102D4000FB7A1A462221F868FFF734FE0E21F86854
:102D5000FFF711FE0346FB75FB7D1A460D21F8684F
:102D6000FFF728FE2221F868FFF705FE0346BB7532
:102D7000BA7DFB7A9A4204D1FB6802229A7501233C
:102D80000EE07B68013B7B607B68002BEAD1FB682F
:102D90001B681846FEF765FFF868FFF76FFE002313
:102DA00018461837BD4680BD80B584B000AFF860C6
:102DB000B9603B601346FB71FB79BA680021F86883
:102DC000FFF721FE8B220121F868FFF7F3FDFB6876
:102DD0001B681846FEF7AFFF0346002B0BD01221ED
:102DE000F868FFF7C8FDF868FFF779FFF868FFF7A4
:102DF00049FF012313E03B68013B3B603B68002B2C
:102E000009D1FB681B681846FEF72BFFF868FFF72F
:102E100035FE002303E00120FEF718FFD7E7184630
:102E20001037BD4680BD80B584B000AFF860C7E9FB
:102E30000023FB681B681846FEF7F3FEF968D7E924
:102E40000023C1E90223FB683A7E1A74FB683A7FCB
:102E50005A74FB6897F820209A74FB6897F824202E
:102E6000DA74FB6897F828201A75FB6897F82C200D
:102E70005A75F868FFF702FE00BF1037BD4680BDE7
:102E800080B400AF01231846BD4680BC704780B5B2
:102E900082B000AF7860396003F042FA0346162230
:102EA0001A604FF0FF3318460837BD4680BD80B525
:102EB00082B000AF78604FF0FF317868FFF7E7FF2E
:102EC000FEE780B586B000AFF860B9607A60002395
:102ED0007B610AE0AFF300800146BB685A1CBA6010
:102EE000CAB21A707B6901337B617A697B689A4246
:102EF000F0DB7B6818461837BD4680BD80B586B0CC
:102F000000AFF860B9607A6000237B6109E0BB68BC
:102F10005A1CBA601B781846AFF300807B690133F6
:102F20007B617A697B689A42F1DB7B6818461837C7
:102F3000BD4680BD80B483B000AF78604FF0FF33F2
:102F400018460C37BD4680BC704780B483B000AFD4
:102F5000786039603B684FF400525A60002318468D
:102F60000C37BD4680BC704780B483B000AF78603A
:102F7000012318460C37BD4680BC704780B485B02D
:102F800000AFF860B9607A60002318461437BD4678
:102F900080BC704780B586B000AF7860144A154B8E
:102FA000D31A7B617B693B61134B1B68002B02D1F9
:102FB000114B124A1A60104B1A687B6813443A6925
:102FC0009A4207D203F0ACF903460C221A604FF084
:102FD000FF3309E0084B1B68FB60074B1A687B68EE
:102FE0001344054A1360FB6818461837BD4680BD78
:102FF000005000200004000054060020A807002014
:1030000080B400AF00BFBD4680BC7047FFF7F8FF3B
:103010000B480C490C4A002302E0D458C450043336
:10302000C4188C42F9D3094A094C002301E013600B
:103030000432A242FBD303F079F9FFF749F8704755
:1030400000000020F001002038940008F00100206A
:10305000A8070020FEE7000080B500AF084B1B6802
:10306000074A43F010031360032000F02BF90F20F0
:1030700000F008F8FFF79CFB0023184680BD00BF56
:103080000020024080B582B000AF7860124B1A6811
:10309000124B1B7819464FF47A73B3FBF1F3B2FB72
:1030A000F3F3184600F035F90346002B01D0012355
:1030B0000EE07B680F2B0AD8002279684FF0FF30B2
:1030C00000F00BF9064A7B681360002300E001233F
:1030D00018460837BD4680BD0800002010000020BB
:1030E0000C00002080B400AF054B1B781A46054B3E
:1030F0001B681344034A136000BFBD4680BC704781
:10310000100000205806002080B400AF024B1B685E
:103110001846BD4680BC70475806002080B584B074
:1031200000AF7860FFF7F0FFB8607B68FB60FB687A
:10313000B3F1FF3F05D00A4B1B781A46FB681344D6
:10314000FB6000BFFFF7E0FF0246BB68D31AFA68D6
:103150009A42F7D800BF00BF1037BD4680BD00BF00
:103160001000002080B485B000AF78607B6803F069
:103170000703FB600C4BDB68BB60BA684FF6FF03CC
:103180001340BB60FB681A02BB68134343F0BF6384
:1031900043F40033BB60044ABB68D36000BF1437FC
:1031A000BD4680BC704700BF00ED00E080B400AFBA
:1031B000044BDB681B0A03F007031846BD4680BCBE
:1031C000704700BF00ED00E080B483B000AF03465D
:1031D0003960FB7197F90730002B0ADB3B68DAB2E4
:1031E0000C4997F907301201D2B20B4483F800233F
:1031F0000AE03B68DAB20849FB7903F00F03043BAD
:103200001201D2B20B441A7600BF0C37BD4680BC07
:10321000704700BF00E100E000ED00E080B489B03D
:1032200000AFF860B9607A60FB6803F00703FB61E8
:10323000FB69C3F10703042B28BF0423BB61FB69AF
:103240000433062B02D9FB69033B00E000237B61BA
:103250004FF0FF32BB6902FA03F3DA43BB681A404E
:103260007B699A404FF0FF317B6901FA03F3D94340
:103270007B680B40134318462437BD4680BC70471B
:1032800080B582B000AF78607B68013BB3F1807F8E
:1032900001D301230FE00A4A7B68013B53600F21F1
:1032A0004FF0FF30FFF790FF054B00229A60044B70
:1032B00007221A60002318460837BD4680BD00BFAC
:1032C00010E000E080B582B000AF78607868FFF76A
:1032D00049FF00BF0837BD4680BD80B586B000AF4E
:1032E0000346B9607A60FB7300237B61FFF75EFFE2
:1032F00078617A68B9687869FFF790FF024697F9B4
:103300000F3011461846FFF75FFF00BF1837BD4664
:1033100080BD80B582B000AF78607868FFF7B0FFFD
:10332000034618460837BD4680BD000080B48BB008
:1033300000AF7860396000237B6200233B6269E163
:1033400001227B6A02FA03F3FB613B681B68FA699E
:103350001340BB61BA69FB699A4240F058813B68EF
:103360005B689A4A93425ED0984A934275D8984ACD
:10337000934258D0964A93426FD8964A934252D07D
:10338000944A934269D8944A93424CD0924A9342C9
:1033900063D8924A934246D0904A93425DD8122B0A
:1033A0002AD8122B59D801A252F823F0273400084A
:1033B0000134000813340008553400085B34000859
:1033C0005B3400085B3400085B3400085B340008A1
:1033D0005B3400085B3400085B3400085B34000891
:1033E0005B3400085B3400085B3400085B34000881
:1033F000093400081D340008794A934213D02CE0A8
:103400003B68DB683B6229E03B68DB6804333B6276
:1034100024E03B68DB6808333B621FE03B68DB6805
:103420000C333B621AE03B689B68002B02D10423FB
:103430003B6213E03B689B68012B05D108233B628C
:103440007B68FA691A6109E008233B627B68FA69C4
:103450005A6103E000233B6200E000BFBB69FF2B21
:1034600001D87B6801E07B6804337B61BB69FF2B7B
:1034700002D87B6A9B0002E07B6A083B9B003B61B1
:103480007B691A680F213B6901FA03F3DB431A4099
:10349000396A3B6901FA03F31A437B691A603B6896
:1034A0005B6803F08053002B00F0B1804D4B9B69AB
:1034B0004C4A43F0010393614A4B9B6903F00103BB
:1034C000BB60BB68484A7B6A9B08023352F82330D2
:1034D000FB607B6A03F003039B000F2202FA03F3F5
:1034E000DB43FA681340FB607B68404A934213D089
:1034F0007B683F4A93420DD07B683E4A934207D097
:103500007B683D4A934201D1032306E0042304E093
:10351000022302E0012300E000237A6A02F00302A2
:1035200092009340FA681343FB602F497B6A9B0823
:103530000233FA6841F823203B685B6803F4801388
:10354000002B06D02D4B9A682C49BB6913438B6026
:1035500006E02A4B9A68BB69DB43284913408B601D
:103560003B685B6803F40013002B06D0234BDA683A
:103570002249BB691343CB6006E0204BDA68BB6984
:10358000DB431E491340CB603B685B6803F40033A8
:10359000002B06D0194B5A681849BB6913434B607E
:1035A00006E0164B5A68BB69DB43144913404B6075
:1035B0003B685B6803F48033002B21D00F4B1A6803
:1035C0000E49BB6913430B6021E000BF00003210BD
:1035D0000000311000002210000021100000121025
:1035E00000001110001002400000014000080140DE
:1035F000000C014000100140001401400004014093
:103600000B4B1A68BB69DB43094913400B607B6AAB
:1036100001337B623B681A687B6A22FA03F3002B52
:103620007FF48EAE00BF00BF2C37BD4680BC704714
:103630000004014080B485B000AF78600B467B8009
:103640007B689A687B881340002B02D00123FB73B0
:1036500001E00023FB73FB7B18461437BD4680BC9A
:10366000704780B483B000AF78600B467B80134610
:103670007B707B78002B03D07A887B681A6103E02B
:103680007B881A047B681A6100BF0C37BD4680BC7A
:103690007047000080B584B000AF78607B68002B75
:1036A00001D101232BE17B6893F83D30DBB2002B85
:1036B00006D17B68002283F83C207868FFF7AAF8DF
:1036C0007B68242283F83D207B681B681A687B682E
:1036D0001B6822F001021A607B681B681A687B680D
:1036E0001B6842F400421A607B681B681A687B689A
:1036F0001B6822F400421A6001F0E0FBF8607B686E
:103700005B68814A934207D8FB68804A934294BF22
:1037100001230023DBB206E0FB687D4A934294BF9D
:1037200001230023DBB2002B01D00123E7E0FB687B
:10373000784AA2FB03239B0CBB607B681B685B6819
:1037400023F03F017B681B68BA680A435A607B68B4
:103750001B681B6A23F03F017B685B686A4A9342DF
:1037600002D8BB68013309E0BB684FF4967202FBD4
:1037700003F3694AA2FB03239B0901337A681268A9
:103780000B4313627B681B68DB6923F44F4222F012
:10379000FF027B685B685C498B4219D8FB68591E45
:1037A0007B685B685B00B1FBF3F3591C40F6FC736C
:1037B0000B40002B0AD0FB68591E7B685B685B00DE
:1037C000B1FBF3F30133C3F30B0351E004234FE0E8
:1037D0007B689B68002B11D1FB68581E7B68596879
:1037E0000B465B000B44B0FBF3F30133C3F30B0355
:1037F000002B0CBF01230023DBB212E0FB68581E34
:103800007B6859680B469B000B4499000B44B0FB46
:10381000F3F30133C3F30B03002B0CBF012300238D
:10382000DBB2002B01D0012322E07B689B68002BD8
:103830000ED1FB68581E7B6859680B465B000B4431
:10384000B0FBF3F30133C3F30B0343F400430FE086
:10385000FB68581E7B6859680B469B000B44990017
:103860000B44B0FBF3F30133C3F30B0343F44043C6
:10387000796809681343CB617B681B681B6823F078
:10388000C0017B68DA697B681B6A1A437B681B6826
:103890000A431A607B681B689B6823F4034323F088
:1038A000FF037A6811697A68D26811437A681268EE
:1038B0000B4393607B681B68DB6823F0FF017B6828
:1038C0005A697B689B691A437B681B680A43DA6004
:1038D0007B681B681A687B681B6842F001021A60EB
:1038E0007B6800221A647B68202283F83D207B6875
:1038F00000221A637B68002283F83E2000231846CA
:103900001037BD4680BD00BFA08601007F841E0029
:10391000FF083D0083DE1B43D34D621080B588B0A5
:1039200002AFF8607A601A460B467B8113463B81F2
:10393000FFF7EAFB7861FB6893F83D30DBB2202BA0
:1039400040F0E0807B690093192301227049F868F8
:1039500000F0B4FC0346002B01D00223D3E0FB6847
:1039600093F83C30012B01D10223CCE0FB6801220B
:1039700083F83C20FB681B681B6803F00103012BE4
:1039800007D0FB681B681A68FB681B6842F00102DD
:103990001A60FB681B681A68FB681B6822F40062E7
:1039A0001A60FB68212283F83D20FB68102283F80F
:1039B0003E20FB6800221A64FB687A685A62FB6842
:1039C0003A895A85FB685B8D9AB2FB681A85FB6859
:1039D000504ADA6279897B693A6AF86800F004FB38
:1039E0000346002B01D001238DE000233B61FB68DF
:1039F0001B685B693B61FB681B689B693B613B69BA
:103A000066E07A69396AF86800F072FD0346002BB7
:103A10000DD0FB681B6C042B07D1FB681B681A6870
:103A2000FB681B6842F400721A6001236BE0FB68BC
:103A30005B6A1A78FB681B681A61FB685B6A5A1C30
:103A4000FB685A62FB685B8D9BB2013B9AB2FB68D4
:103A50005A85FB681B8D013B9AB2FB681A85FB688F
:103A60001B685B6903F00403042B1BD1FB681B8DEF
:103A7000002B17D0FB685B6A1A78FB681B681A6119
:103A8000FB685B6A5A1CFB685A62FB685B8D9BB2E1
:103A9000013B9AB2FB685A85FB681B8D013B9AB2C9
:103AA000FB681A857A69396AF86800F069FD03468F
:103AB000002B0DD0FB681B6C042B07D1FB681B6827
:103AC0001A68FB681B6842F400721A6001231AE04E
:103AD000FB681B8D002B94D1FB681B681A68FB6880
:103AE0001B6842F400721A60FB68202283F83D20B4
:103AF000FB68002283F83E20FB68002283F83C200C
:103B0000002300E0022318461837BD4680BD00BFE1
:103B1000020010000000FFFF80B58CB002AFF8601B
:103B2000084611461A4603467B810B463B811346E5
:103B3000FB8000233B62FFF7E7FA7862FB6893F8AB
:103B40003D30DBB2202B40F044827B6A0093192386
:103B500001228249F86800F0B1FB0346002B01D036
:103B6000022337E2FB6893F83C30012B01D102239A
:103B700030E2FB68012283F83C20FB681B681B686D
:103B800003F00103012B07D0FB681B681A68FB6870
:103B90001B6842F001021A60FB681B681A68FB6828
:103BA0001B6822F400621A60FB68222283F83D2021
:103BB000FB68402283F83E20FB6800221A64FB6801
:103BC0003A6B5A62FB68BA8E5A85FB685B8D9AB273
:103BD000FB681A85FB68624ADA62F8883A89798953
:103BE0007B6A0193BB6B00930346F86800F07EFA92
:103BF0000346002B01D00123ECE1FB681B8D002B59
:103C000013D10023FB61FB681B685B69FB61FB68E8
:103C10001B689B69FB61FB69FB681B681A68FB6892
:103C20001B6842F400721A60C0E1FB681B8D012B17
:103C30001ED1FB681B681A68FB681B6822F480624F
:103C40001A6072B600BF0023BB61FB681B685B692A
:103C5000BB61FB681B689B69BB61BB69FB681B6838
:103C60001A68FB681B6842F400721A6062B635E09D
:103C7000FB681B8D022B1ED1FB681B681A68FB6852
:103C80001B6842F400621A6072B600BF00237B61B9
:103C9000FB681B685B697B61FB681B689B697B61D8
:103CA0007B69FB681B681A68FB681B6822F48062EA
:103CB0001A6062B612E0FB681B681A68FB681B6832
:103CC00042F480621A6000233B61FB681B685B69F9
:103CD0003B61FB681B689B693B613B6966E1FB6874
:103CE0001B8D032B00F21F81FB681B8D012B23D141
:103CF0007A6AB96BF86800F08BFC0346002B01D0A0
:103D0000012367E1FB681B681A69FB685B6AD2B232
:103D10001A70FB685B6A5A1CFB685A62FB681B8D51
:103D2000013B9AB2FB681A85FB685B8D9BB2013B35
:103D30009AB2FB685A8539E1FB681B8D022B52D180
:103D40007B6A0093BB6B00220649F86800F0B6FA64
:103D50000346002B08D001233CE100BF0200100005
:103D60000000FFFF0400010072B600BFFB681B6883
:103D70001A68FB681B6842F400721A60FB681B68D3
:103D80001A69FB685B6AD2B21A70FB685B6A5A1CDC
:103D9000FB685A62FB681B8D013B9AB2FB681A856F
:103DA000FB685B8D9BB2013B9AB2FB685A8562B699
:103DB00000BFFB681B681A69FB685B6AD2B21A70A5
:103DC000FB685B6A5A1CFB685A62FB681B8D013BEF
:103DD0009AB2FB681A85FB685B8D9BB2013B9AB275
:103DE000FB685A85E2E07B6A0093BB6B00227B494B
:103DF000F86800F063FA0346002B01D00123E9E0E4
:103E0000FB681B681A68FB681B6822F480621A60F2
:103E100072B600BFFB681B681A69FB685B6AD2B2A6
:103E20001A70FB685B6A5A1CFB685A62FB681B8D40
:103E3000013B9AB2FB681A85FB685B8D9BB2013B24
:103E40009AB2FB685A85664B1B68DB08654AA2FB81
:103E500003231A0A13469B001344DA00D31A3B6269
:103E60003B6A013B3B623B6A002B18D1FB68002296
:103E70001A63FB68202283F83D20FB68002283F848
:103E80003E20FB681B6C43F02002FB681A6462B69C
:103E900000BFFB68002283F83C2001239AE0FB6806
:103EA0001B685B6903F00403042BD9D1FB681B6812
:103EB0001A68FB681B6842F400721A60FB681B6892
:103EC0001A69FB685B6AD2B21A70FB685B6A5A1C9B
:103ED000FB685A62FB681B8D013B9AB2FB681A852E
:103EE000FB685B8D9BB2013B9AB2FB685A8562B658
:103EF00000BFFB681B681A69FB685B6AD2B21A7064
:103F0000FB685B6A5A1CFB685A62FB681B8D013BAD
:103F10009AB2FB681A85FB685B8D9BB2013B9AB233
:103F2000FB685A8542E07A6AB96BF86800F070FB6A
:103F30000346002B01D001234CE0FB681B681A6983
:103F4000FB685B6AD2B21A70FB685B6A5A1CFB683A
:103F50005A62FB681B8D013B9AB2FB681A85FB68AD
:103F60005B8D9BB2013B9AB2FB685A85FB681B686C
:103F70005B6903F00403042B18D1FB681B681A6902
:103F8000FB685B6AD2B21A70FB685B6A5A1CFB68FA
:103F90005A62FB681B8D013B9AB2FB681A85FB686D
:103FA0005B8D9BB2013B9AB2FB685A85FB681B8D07
:103FB000002B7FF494AEFB68202283F83D20FB6841
:103FC000002283F83E20FB68002283F83C20002377
:103FD00000E0022318462837BD4680BD04000100DA
:103FE0000800002089B5F81480B588B002AFF860E9
:103FF0007A603B600B467B81FB68DB6A7B617B6997
:10400000082B06D07B69012B03D07B6913F5803F19
:1040100008D1FB681B681A68FB681B6842F4807251
:104020001A600BE0FB681B6B122B07D1FB681B6847
:104030001A68FB681B6842F480721A603B68009340
:104040007B6800224FF00111F86800F037F9034651
:10405000002B0DD0FB681B681B6803F48073B3F55D
:10406000807F03D1FB684FF400721A64032335E0AC
:10407000FB681B69B3F5804F08D17B89DBB21A4618
:10408000FB681B6802F0FE021A611BE07B89DB11F2
:10409000DBB203F00603DBB263F00F03DAB2FB68B6
:1040A0001B681A613B687A680E49F86800F080F96D
:1040B0000346002B01D0012310E07B89DAB2FB68B4
:1040C0001B681A613B687A680749F86800F070F964
:1040D0000346002B01D0012300E0002318461837C7
:1040E000BD4680BD080001000200010080B588B017
:1040F00002AFF860084611461A4603467B810B461C
:104100003B811346FB80FB681B681A68FB681B68D1
:1041100042F480621A60FB681B681A68FB681B68BF
:1041200042F480721A607B6A00933B6A00224FF06F
:104130000111F86800F0C2F80346002B0DD0FB68AF
:104140001B681B6803F48073B3F5807F03D1FB68A1
:104150004FF400721A640323AAE07B89DBB21A468B
:10416000FB681B6802F0FE021A617B6A3A6A5249D8
:10417000F86800F01DF90346002B01D0012397E0F9
:1041800000237B61FB681B685B697B61FB681B68C4
:104190009B697B617B697A6A396AF86800F0A8F9E3
:1041A0000346002B0DD0FB681B6C042B07D1FB686A
:1041B0001B681A68FB681B6842F400721A600123CE
:1041C00076E0FB88012B05D13B89DAB2FB681B68DE
:1041D0001A6121E03B891B0A9BB2DAB2FB681B68BB
:1041E0001A617A6A396AF86800F082F90346002B8E
:1041F0000DD0FB681B6C042B07D1FB681B681A6889
:10420000FB681B6842F400721A60012350E03B898E
:10421000DAB2FB681B681A617A6A396AF86800F0DA
:1042200067F90346002B0DD0FB681B6C042B07D1EC
:10423000FB681B681A68FB681B6842F400721A600E
:10424000012335E0FB681B681A68FB681B6842F4B1
:1042500080721A607B6A00933B6A00224FF0011162
:10426000F86800F02BF80346002B0DD0FB681B68A4
:104270001B6803F48073B3F5807F03D1FB684FF4B0
:1042800000721A64032313E07B89DBB243F001035D
:10429000DAB2FB681B681A617B6A3A6A0649F868F9
:1042A00000F086F80346002B01D0012300E0002334
:1042B00018461837BD4680BD0200010080B584B0A5
:1042C00000AFF860B9603B601346FB7148E03B68A3
:1042D000B3F1FF3F44D0FEF717FF0246BB69D31A84
:1042E0003A689A4202D33B68002B39D1BB681B0C59
:1042F000DBB2012B0DD1FB681B685B69DA43BB683D
:1043000013409BB2002B0CBF01230023DBB21A46E3
:104310000CE0FB681B689B69DA43BB6813409BB2E7
:10432000002B0CBF01230023DBB21A46FB799A4213
:1043300016D1FB6800221A63FB68202283F83D2017
:10434000FB68002283F83E20FB681B6C43F02002D0
:10435000FB681A64FB68002283F83C20012323E0F9
:10436000BB681B0CDBB2012B0DD1FB681B685B69C2
:10437000DA43BB6813409BB2002B0CBF0123002320
:10438000DBB21A460CE0FB681B689B69DA43BB682A
:1043900013409BB2002B0CBF01230023DBB21A4653
:1043A000FB799A4293D0002318461037BD4680BD52
:1043B00080B584B000AFF860B9607A603B6071E0AE
:1043C000FB681B685B6903F48063B3F5806F23D1DE
:1043D000FB681B681A68FB681B6842F400721A606D
:1043E000FB681B686FF480625A61FB6800221A63E5
:1043F000FB68202283F83D20FB68002283F83E20E2
:10440000FB681B6C43F00402FB681A64FB68002223
:1044100083F83C20012367E07B68B3F1FF3F41D084
:10442000FEF772FE02463B68D31A7A689A4202D3BC
:104430007B68002B36D1BB681B0CDBB2012B0CD187
:10444000FB681B685B69DA43BB6813409BB2002BB7
:1044500014BF01230023DBB20BE0FB681B689B69E0
:10446000DA43BB6813409BB2002B14BF0123002327
:10447000DBB2002B16D0FB6800221A63FB682022F7
:1044800083F83D20FB68002283F83E20FB681B6C0C
:1044900043F02002FB681A64FB68002283F83C208A
:1044A000012321E0BB681B0CDBB2012B0CD1FB68A4
:1044B0001B685B69DA43BB6813409BB2002B14BFD7
:1044C00001230023DBB20BE0FB681B689B69DA4326
:1044D000BB6813409BB2002B14BF01230023DBB247
:1044E000002B7FF46DAF002318461037BD4680BD0A
:1044F00080B584B000AFF860B9607A6034E0F868E5
:1045000000F0E3F80346002B01D0012334E0BB6840
:10451000B3F1FF3F28D0FEF7F7FD02467B68D31AC0
:10452000BA689A4202D3BB68002B1DD1FB681B6896
:104530005B6903F08003802B16D0FB6800221A63AE
:10454000FB68202283F83D20FB68002283F83E2090
:10455000FB681B6C43F02002FB681A64FB680022B6
:1045600083F83C20012307E0FB681B685B6903F0CC
:104570008003802BC3D1002318461037BD4680BD71
:1045800080B584B000AFF860B9607A6034E0F86854
:1045900000F09BF80346002B01D0012334E0BB68F8
:1045A000B3F1FF3F28D0FEF7AFFD02467B68D31A78
:1045B000BA689A4202D3BB68002B1DD1FB681B6806
:1045C0005B6903F00403042B16D0FB6800221A6316
:1045D000FB68202283F83D20FB68002283F83E2000
:1045E000FB681B6C43F02002FB681A64FB68002226
:1045F00083F83C20012307E0FB681B685B6903F03C
:104600000403042BC3D1002318461037BD4680BDD8
:1046100080B584B000AFF860B9607A6049E0FB68AB
:104620001B685B6903F01003102B19D1FB681B6832
:104630006FF010025A61FB6800221A63FB682022A7
:1046400083F83D20FB68002283F83E20FB681A6C4B
:10465000FB681A64FB68002283F83C20012330E0E9
:10466000FEF752FD02467B68D31ABA689A4202D31B
:10467000BB68002B1DD1FB681B685B6903F040031E
:10468000402B16D0FB6800221A63FB68202283F8B7
:104690003D20FB68002283F83E20FB681B6C43F042
:1046A0002002FB681A64FB68002283F83C20012387
:1046B00007E0FB681B685B6903F04003402BAED149
:1046C000002318461037BD4680BD80B483B000AFCC
:1046D00078607B681B685B6903F48063B3F5806F67
:1046E0001BD17B681B686FF480625A617B68002273
:1046F0001A637B68202283F83D207B68002283F8C0
:104700003E207B681B6C43F004027B681A647B6864
:10471000002283F83C20012300E0002318460C37D8
:10472000BD4680BC7047000080B586B000AF7860A1
:104730007B68002B01D1012372E27B681B6803F0C8
:104740000103002B00F08780924B5B6803F00C03A1
:10475000042B0CD08F4B5B6803F00C03082B12D199
:104760008C4B5B6803F48033B3F5803F0BD1894BEE
:104770001B6803F40033002B6CD07B685B68002B54
:1047800068D101234CE27B685B68B3F5803F06D1BA
:10479000804B1B687F4A43F4803313602EE07B68B4
:1047A0005B68002B0CD17B4B1B687A4A23F4803367
:1047B0001360784B1B68774A23F4802313601DE055
:1047C0007B685B68B3F5A02F0CD1724B1B68714AF4
:1047D00043F4802313606F4B1B686E4A43F48033AD
:1047E00013600BE06B4B1B686A4A23F48033136041
:1047F000684B1B68674A23F4802313607B685B68FF
:10480000002B13D0FEF780FC386108E0FEF77CFC3B
:1048100002463B69D31A642B01D9032300E25D4BA6
:104820001B6803F40033002BF0D014E0FEF76CFC9F
:10483000386108E0FEF768FC02463B69D31A642B36
:1048400001D90323ECE1534B1B6803F40033002B25
:10485000F0D100E000BF7B681B6803F00203002B6F
:1048600063D04C4B5B6803F00C03002B0BD0494B1F
:104870005B6803F00C03082B1CD1464B5B6803F408
:104880008033002B16D1434B1B6803F00203002B2F
:1048900005D07B681B69012B01D00123C0E13D4B92
:1048A0001B6823F0F8027B685B69DB00394913431E
:1048B0000B603AE07B681B69002B20D0364B01224D
:1048C0001A60FEF721FC386108E0FEF71DFC024685
:1048D0003B69D31A022B01D90323A1E12D4B1B689D
:1048E00003F00203002BF0D02A4B1B6823F0F802E0
:1048F0007B685B69DB00274913430B6015E0264B9F
:1049000000221A60FEF700FC386108E0FEF7FCFBAD
:1049100002463B69D31A022B01D9032380E11D4BC8
:104920001B6803F00203002BF0D17B681B6803F0C7
:104930000803002B3AD07B689B69002B19D0174BDA
:1049400001221A60FEF7E0FB386108E0FEF7DCFBAD
:1049500002463B69D31A022B01D9032360E10D4BB8
:104960005B6A03F00203002BF0D0012000F0BAFADA
:104970001CE00A4B00221A60FEF7C6FB38610FE00C
:10498000FEF7C2FB02463B69D31A022B08D9032368
:1049900046E100BF00100240000042428004424253
:1049A000924B5B6A03F00203002BE9D17B681B6822
:1049B00003F00403002B00F0A6800023FB758B4B53
:1049C000DB6903F08053002B0DD1884BDB69874AEC
:1049D00043F08053D361854BDB6903F08053BB60A8
:1049E000BB680123FB75824B1B6803F48073002BAB
:1049F00018D17F4B1B687E4A43F480731360FEF727
:104A000083FB386108E0FEF77FFB02463B69D31A5F
:104A1000642B01D9032303E1754B1B6803F48073F6
:104A2000002BF0D07B68DB68012B06D16F4B1B6A33
:104A30006E4A43F0010313622DE07B68DB68002BB4
:104A40000CD16A4B1B6A694A23F001031362674B5E
:104A50001B6A664A23F0040313621CE07B68DB6870
:104A6000052B0CD1614B1B6A604A43F004031362AF
:104A70005E4B1B6A5D4A43F0010313620BE05B4B24
:104A80001B6A5A4A23F001031362584B1B6A574AA8
:104A900023F0040313627B68DB68002B15D0FEF75C
:104AA00033FB38610AE0FEF72FFB02463B69D31A5D
:104AB00041F28832934201D90323B1E04B4B1B6A88
:104AC00003F00203002BEED014E0FEF71DFB38616B
:104AD0000AE0FEF719FB02463B69D31A41F288321D
:104AE000934201D903239BE0404B1B6A03F002036E
:104AF000002BEED1FB7D012B05D13C4BDB693B4A02
:104B000023F08053D3617B68DB69002B00F0878042
:104B1000364B5B6803F00C03082B61D07B68DB69C4
:104B2000022B46D1334B00221A60FEF7EDFA3861B2
:104B300008E0FEF7E9FA02463B69D31A022B01D9D5
:104B400003236DE0294B1B6803F00073002BF0D1A9
:104B50007B681B6AB3F5803F08D1244B5B6823F464
:104B600000327B689B68214913434B601F4B5B6895
:104B700023F474127B68196A7B685B6A0B431B49D8
:104B800013434B601B4B01221A60FEF7BDFA3861DC
:104B900008E0FEF7B9FA02463B69D31A022B01D9A5
:104BA00003233DE0114B1B6803F00073002BF0D092
:104BB00035E0104B00221A60FEF7A6FA386108E0D3
:104BC000FEF7A2FA02463B69D31A022B01D903234E
:104BD00026E0064B1B6803F00073002BF0D11EE0AB
:104BE0007B68DB69012B07D1012319E0001002402B
:104BF00000700040600042420B4B5B68FB60FB684A
:104C000003F480327B681B6A9A4206D1FB6803F486
:104C100070127B685B6A9A4201D0012300E0002396
:104C200018461837BD4680BD0010024080B584B0DC
:104C300000AF786039607B68002B01D10123D0E0A0
:104C40006A4B1B6803F007033A689A4210D9674B16
:104C50001B6823F0070265493B6813430B60634BF5
:104C60001B6803F007033A689A4201D00123B8E0B9
:104C70007B681B6803F00203002B20D07B681B6855
:104C800003F00403002B05D0594B5B68584A43F4EA
:104C9000E06353607B681B6803F00803002B05D0BA
:104CA000534B5B68524A43F460535360504B5B680C
:104CB00023F0F0027B689B684D4913434B607B688F
:104CC0001B6803F00103002B40D07B685B68012B5D
:104CD00007D1474B1B6803F40033002B15D1012388
:104CE0007FE07B685B68022B07D1414B1B6803F0B8
:104CF0000073002B09D1012373E03D4B1B6803F0C7
:104D00000203002B01D101236BE0394B5B6823F0D8
:104D100003027B685B68364913434B60FEF7F4F986
:104D2000F8600AE0FEF7F0F90246FB68D31A41F298
:104D30008832934201D9032353E02D4B5B6803F083
:104D40000C027B685B689B009A42EBD1274B1B6887
:104D500003F007033A689A4210D2244B1B6823F0F1
:104D6000070222493B6813430B60204B1B6803F08A
:104D700007033A689A4201D0012332E07B681B683E
:104D800003F00403002B08D0194B5B6823F4E062A6
:104D90007B68DB68164913434B607B681B6803F034
:104DA0000803002B09D0124B5B6823F460527B6828
:104DB0001B69DB000E4913434B6000F021F80246EB
:104DC0000B4B5B681B0903F00F030A49CB5C22FA0B
:104DD00003F3094A1360094B1B681846FEF752F9A2
:104DE000002318461037BD4680BD00BF002002409A
:104DF0000010024018900008080000200C0000205D
:104E000080B487B000AF0023FB600023BB600023A9
:104E10007B6100237B6000233B611E4B5B68FB6072
:104E2000FB6803F00C03042B02D0082B03D027E00F
:104E3000194B3B6127E0FB689B0C03F00F03174AFB
:104E4000D35C7B60FB6803F48033002B10D0114BE4
:104E50005B685B0C03F00103114AD35CBB607B68A9
:104E60000D4A03FB02F2BB68B2FBF3F37B6104E083
:104E70007B680C4A02FB03F37B617B693B6102E0C8
:104E8000054B3B6100BF3B6918461C37BD4680BCE3
:104E9000704700BF0010024000127A0030900008F6
:104EA0004090000800093D0080B400AF024B1B6831
:104EB0001846BD4680BC70470800002080B500AF92
:104EC000FFF7F2FF0246054B5B681B0A03F007037E
:104ED0000349CB5C22FA03F3184680BD0010024060
:104EE0002890000880B485B000AF78600A4B1B683A
:104EF0000A4AA2FB03235B0A7A6802FB03F3FB6006
:104F000000BFFB685A1EFA60002BF9D100BF00BF3A
:104F10001437BD4680BC704708000020D34D621096
:104F200080B582B000AF78607B68002B01D101238F
:104F300076E07B685B6A002B08D17B685B68B3F521
:104F4000827F09D07B680022DA6105E07B6800225D
:104F50001A617B6800225A617B6800229A627B6832
:104F600093F85130DBB2002B06D17B68002283F826
:104F700050207868FDF78CFC7B68022283F8512072
:104F80007B681B681A687B681B6822F040021A6005
:104F90007B685B6803F482727B689B6803F404435C
:104FA0001A437B68DB6803F400631A437B681B6960
:104FB00003F002031A437B685B6903F001031A43A1
:104FC0007B689B6903F400731A437B68DB6903F019
:104FD00038031A437B681B6A03F0800342EA03012B
:104FE0007B689B6A03F400527B681B680A431A6063
:104FF0007B689B691A0C7B681B6802F004025A608C
:105000007B681B68DA697B681B6822F40062DA61DE
:105010007B6800225A657B68012283F851200023B7
:1050200018460837BD4680BD80B588B000AFF8602F
:10503000B9603B601346FB800023FB77FB6893F865
:105040005030012B01D102232DE1FB68012283F8AE
:105050005020FEF759F8B861FB88FB82FB6893F893
:105060005130DBB2012B02D00223FB7716E1BB6883
:10507000002B02D0FB88002B02D10123FB770DE12E
:10508000FB68032283F85120FB6800225A65FB6805
:10509000BA681A63FB68FA889A86FB68FA88DA8627
:1050A000FB6800229A63FB6800229A87FB68002253
:1050B000DA87FB6800225A64FB6800221A64FB68E6
:1050C0009B68B3F5004F0FD1FB681B681A68FB683B
:1050D0001B6822F040021A60FB681B681A68FB68B4
:1050E0001B6842F480421A60FB681B681B6803F06F
:1050F0004003402B07D0FB681B681A68FB681B68DD
:1051000042F040021A60FB68DB68B3F5006F4FD1D4
:10511000FB685B68002B02D0FB8A012B42D1FB6845
:105120001B6B1A88FB681B68DA60FB681B6B9A1C98
:10513000FB681A63FB68DB8E9BB2013B9AB2FB688B
:10514000DA862FE0FB681B689B6803F00203022BE2
:1051500012D1FB681B6B1A88FB681B68DA60FB685E
:105160001B6B9A1CFB681A63FB68DB8E9BB2013BCE
:105170009AB2FB68DA8615E0FDF7C6FF0246BB6906
:10518000D31A3A689A4203D83B68B3F1FF3F02D181
:105190003B68002B06D10323FB77FB68012283F8D1
:1051A00051207BE0FB68DB8E9BB2002BCAD150E024
:1051B000FB685B68002B02D0FB8A012B44D1FB68A3
:1051C0001A6BFB681B680C3312781A70FB681B6B38
:1051D0005A1CFB681A63FB68DB8E9BB2013B9AB2D8
:1051E000FB68DA8630E0FB681B689B6803F002030B
:1051F000022B13D1FB681A6BFB681B680C33127807
:105200001A70FB681B6B5A1CFB681A63FB68DB8E09
:105210009BB2013B9AB2FB68DA8615E0FDF774FF9A
:105220000246BB69D31A3A689A4203D83B68B3F185
:10523000FF3F02D13B68002B06D10323FB77FB68BD
:10524000012283F8512029E0FB68DB8E9BB2002B02
:10525000C9D1BA693968F86800F06EFA0346002BC4
:1052600002D0FB6820225A65FB689B68002B0AD19C
:1052700000233B61FB681B68DB683B61FB681B68C4
:105280009B683B613B69FB685B6D002B02D001238F
:10529000FB7703E0FB68012283F85120FB680022C2
:1052A00083F85020FB7F18462037BD4680BD80B56F
:1052B0008CB000AFF860B9607A607B800123FB623C
:1052C000002387F82B30FB6893F85030012B01D175
:1052D000022398E1FB68012283F85020FDF714FFB8
:1052E0007862FB6893F8513087F82330FB685B687D
:1052F000FB617B887B8397F82330012B0FD0FB6900
:10530000B3F5827F07D1FB689B68002B03D197F828
:105310002330042B03D0022387F82B306DE1BB68C8
:10532000002B05D07B68002B02D07B88002B03D19B
:10533000012387F82B3060E1FB6893F85130DBB232
:10534000042B03D0FB68052283F85120FB68002260
:105350005A65FB687A689A63FB687A88DA87FB6823
:105360007A889A87FB68BA681A63FB687A88DA8653
:10537000FB687A889A86FB6800221A64FB68002220
:105380005A64FB681B681B6803F04003402B07D07E
:10539000FB681B681A68FB681B6842F040021A60D1
:1053A000FB68DB68B3F5006F7CD1FB685B68002BA2
:1053B00002D07B8B012B6AD1FB681B6B1A88FB68C0
:1053C0001B68DA60FB681B6B9A1CFB681A63FB683E
:1053D000DB8E9BB2013B9AB2FB68DA8657E0FB6832
:1053E0001B689B6803F00203022B1BD1FB68DB8E5A
:1053F0009BB2002B16D0FB6A012B13D1FB681B6BF1
:105400001A88FB681B68DA60FB681B6B9A1CFB68D8
:105410001A63FB68DB8E9BB2013B9AB2FB68DA86AB
:105420000023FB62FB681B689B6803F00103012BF0
:1054300019D1FB68DB8F9BB2002B14D0FB681B6873
:10544000DA68FB689B6B92B21A80FB689B6B9A1CB4
:10545000FB689A63FB68DB8F9BB2013B9AB2FB68E7
:10546000DA870123FB62FDF74FFE02467B6AD31AFF
:10547000BA6B9A420BD8BB6BB3F1FF3F07D0032343
:1054800087F82B30FB68012283F85120B5E0FB68D8
:10549000DB8E9BB2002BA2D1FB68DB8F9BB2002B73
:1054A0009DD180E0FB685B68002B02D07B8B012BD9
:1054B0006FD1FB681A6BFB681B680C3312781A708B
:1054C000FB681B6B5A1CFB681A63FB68DB8E9BB284
:1054D000013B9AB2FB68DA865BE0FB681B689B685D
:1054E00003F00203022B1CD1FB68DB8E9BB2002B66
:1054F00017D0FB6A012B14D1FB681A6BFB681B6881
:105500000C3312781A70FB681B6B5A1CFB681A6309
:10551000FB68DB8E9BB2013B9AB2FB68DA86002304
:10552000FB62FB681B689B6803F00103012B19D128
:10553000FB68DB8F9BB2002B14D0FB681B68DA681A
:10554000FB689B6BD2B21A70FB689B6B5A1CFB68A2
:105550009A63FB68DB8F9BB2013B9AB2FB68DA87E8
:105560000123FB62FDF7D0FD02467B6AD31ABA6BBA
:105570009A4203D8BB6BB3F1FF3F02D1BB6B002B48
:1055800007D1032387F82B30FB68012283F85120D1
:1055900033E0FB68DB8E9BB2002B9ED1FB68DB8F78
:1055A0009BB2002B99D17A6AB96BF86800F0C4F805
:1055B0000346002B06D0012387F82B30FB682022FE
:1055C0005A651AE0FB689B68002B0AD100237B61B7
:1055D000FB681B68DB687B61FB681B689B687B6101
:1055E0007B69FB685B6D002B03D0012387F82B30B0
:1055F00003E0FB68012283F85120FB68002283F856
:10560000502097F82B3018463037BD4680BD80B407
:1056100083B000AF78607B6893F85130DBB21846F6
:105620000C37BD4680BC704780B588B000AFF860CD
:10563000B9603B601346FB71FDF766FD0246BB6A2D
:105640009B1A3A681344FB61FDF75EFDB861394B64
:105650001B685B011B0DFA6902FB03F37B6154E0DD
:105660003B68B3F1FF3F50D0FDF74EFD0246BB69EA
:10567000D31AFA699A4202D9FB69002B3DD1FB6823
:105680001B685A68FB681B6822F0E0025A60FB68DE
:105690005B68B3F5827F11D1FB689B68B3F5004F5F
:1056A00004D0FB689B68B3F5806F07D1FB681B686B
:1056B0001A68FB681B6822F040021A60FB689B6A4C
:1056C000B3F5005F0FD1FB681B681A68FB681B68A5
:1056D00022F400521A60FB681B681A68FB681B689A
:1056E00042F400521A60FB68012283F85120FB68E3
:1056F000002283F85020032317E07B69002B01D19F
:105700000023FB617B69013B7B61FB681B689A6836
:10571000BB681340BA689A420CBF01230023DBB276
:105720001A46FB799A429BD1002318462037BD4682
:1057300080BD00BF0800002080B586B002AFF860D1
:10574000B9607A607B680093BB6800228021F868AA
:10575000FFF76AFF0346002B07D0FB685B6D43F041
:105760002002FB685A65032300E000231846103727
:10577000BD4680BD002B2DE9F0471F46BBBF03F19E
:1057800000431F4600232D2388B01446129A109D13
:105790001370149BDDF84CA023F02008B8F1460FDD
:1057A00005D0B8F1450F00D10135022300E00323F5
:1057B00007AA049206AACDE902A2CDE90035224645
:1057C0003B4600F081FEB8F1470F064602D1119B1F
:1057D000DB0722D5B8F1460F06EB050910D1337867
:1057E000302B0AD10022002320463946FBF7DCF893
:1057F00018B9C5F10105CAF80050DAF8003099442B
:105800000022002320463946FBF7CEF808B1CDF838
:105810001C903022079B4B4507D33046079B159AB7
:105820009B1B136008B0BDE8F087591C07911A70E4
:10583000F0E70346F7B5002903F8022BB6BF2D2287
:105840002B224942092942702ADD0DF10702174631
:105850000A2691FBF6F5944606FB151430340CF835
:10586000014C0C46632C294602F1FF32F1DC303149
:10587000ACF1020402F8011C2246411CBA420AD3D0
:105880000DF10902A2EB0C02BC4288BF00221344B6
:10589000181A03B0F0BD12F8015B01F8015FEDE7E3
:1058A000302330318370C170031DF1E72DE9F04FD3
:1058B00091B00C46DDF8688016461F46054600F09C
:1058C000E5FC036818460993FAF742FC00230E939F
:1058D000D8F800300A90073323F0070303F10802D9
:1058E00094F81890D4F800B0C8F80020D3E900A8C4
:1058F00052464346C4E9122328F000430B934FF06D
:10590000FF3250469C4B0B99FBF780F870BB4FF071
:10591000FF325046984B0B99FBF75AF830BB0022E8
:10592000002350464146FBF749F810B12D2384F877
:105930004330924A924BB9F1470F94BF9046984634
:1059400003234FF0000A23612BF004032360334646
:105950002146284600970FAA00F0D6F9013040F002
:1059600090804FF0FF3011B0BDE8F08F52464346B3
:1059700050464146FBF74AF848B1B8F1000FB8BFAE
:105980002D23804AB8BF84F843307F4BD3E7636848
:1059900009F0DF015A1C42D10623636000220692FF
:1059A0000EAACDE904920DAA4BF4806303920DF187
:1059B0003302CDE9013223606368524600932846E2
:1059C00043460B91FFF7D6FE0B99804647290D9968
:1059D00008D1C81C02DB6368994240DDA9F10209C5
:1059E0005FFA89F9B9F1650F1FD84A46013904F108
:1059F00050000D91FFF71DFF0E9A82461318012AE1
:105A0000236102DC2268D20701D5013323619DF8AE
:105A10003330002B9BD02D2384F8433097E7472960
:105A2000BCD1002BBAD10123B7E7B9F1660F18D169
:105A3000002963680BDD216113B92268D00702D504
:105A400001330B4423614FF0000AA165DFE713B96E
:105A50002268D20701D50233F4E70123F2E74FF0C1
:105A600067090E9B994205DB23682161D807EAD5B7
:105A70004B1CE7E70029CCBF0122C1F1020213440D
:105A8000E0E723685A0507D4236942463146284691
:105A9000B84701302BD164E7B9F1650F40F2DD80E2
:105AA000D4E9120100220023FAF77EFF002833D048
:105AB000012331462846354AB84701303FF451AFFB
:105AC000DDE90D239A4202DB2368D8070FD5DDE913
:105AD000092331462846B84701303FF442AF4FF022
